:100000000C9462000C948A000C948A000C948A0070
:100010000C948A000C948A000C948A000C948A0038
:100020000C948A000C948A000C948A000C948A0028
:100030000C948A000C948A000C948A000C948A0018
:100040000C947C020C948A000C94EC020C94C60272
:100050000C948A000C948A000C948A000C948A00F8
:100060000C948A000C948A000000000024002700F1
:100070002A000000000023002600290000000000E4
:10008000250028002B0004040404040404040202D4
:100090000202020203030303030301020408102007
:1000A0004080010204081020010204081020000012
:1000B0000008000201000003040700000000000027
:1000C0000000D50411241FBECFEFD8E0DEBFCDBFA6
:1000D00011E0A0E0B1E0E6E9FAE002C005900D927F
:1000E000A433B107D9F721E0A4E3B1E001C01D9228
:1000F000A23EB207E1F710E0C2E6D0E004C02197CB
:10010000FE010E944305C136D107C9F70E9463036F
:100110000C9449050C94000090E0FC01E255FF4F5F
:100120002491FC01E656FF4F3491FC01EA57FF4F42
:10013000E491EE23C9F0222339F0233001F1A8F431
:10014000213019F1223029F1F0E0EE0FFF1FE458C1
:10015000FF4FA591B4918FB7F894EC91611126C02F
:1001600030953E233C938FBF08952730A9F0283067
:10017000C9F0243049F7809180008F7D03C08091C1
:1001800080008F7780938000DFCF84B58F7784BD28
:10019000DBCF84B58F7DFBCF8091B0008F778093CC
:1001A000B000D2CF8091B0008F7DF9CF3E2BDACF57
:1001B0003FB7F8948091410190914201A091430191
:1001C000B091440126B5A89B05C02F3F19F00196B8
:1001D000A11DB11D3FBFBA2FA92F982F8827BC01A1
:1001E000CD01620F711D811D911D42E0660F771FC9
:1001F000881F991F4A95D1F70895AF92BF92CF9269
:10020000DF92EF92FF920F931F93CF93DF936C01D6
:100210007B018B01040F151FEB015E01AE18BF08B7
:10022000C017D10759F06991D601ED91FC91019069
:10023000F081E02DC6010995892B79F7C501DF9181
:10024000CF911F910F91FF90EF90DF90CF90BF90D3
:10025000AF900895FC01538D448D252F30E0842FFD
:1002600090E0821B930B541710F0CF9608950197DE
:100270000895FC01918D828D981761F0A28DAE0FCB
:10028000BF2FB11D5D968C91928D9F5F9F73928F52
:1002900090E008958FEF9FEF0895FC01918D828D7E
:1002A000981731F0828DE80FF11D858D90E008954B
:1002B0008FEF9FEF0895FC01918D228D892F90E0A3
:1002C000805C9F4F821B91098F739927089585E465
:1002D00091E00E945B0121E0892B09F420E0822F4C
:1002E000089580E090E0892B29F00E946701811138
:1002F0000C9400000895FC01A48DA80FB92FB11D26
:10030000A35ABF4F2C91848D90E001968F7399274B
:10031000848FA689B7892C93A089B1898C91837029
:1003200080648C93938D848D981306C00288F38922
:10033000E02D80818F7D80830895EF92FF920F934F
:100340001F93CF93DF93EC0181E0888F9B8D8C8D81
:1003500098131AC0E889F989808185FF15C09FB775
:10036000F894EE89FF896083E889F9898081837038
:10037000806480839FBF81E090E0DF91CF911F91E7
:100380000F91FF90EF900895F62E0B8D10E00F5F08
:100390001F4F0F731127E02E8C8D8E110CC00FB6DE
:1003A00007FCFACFE889F989808185FFF5CFCE0176
:1003B0000E947B01F1CFEB8DEC0FFD2FF11DE35A75
:1003C000FF4FF0829FB7F8940B8FEA89FB898081F9
:1003D0008062CFCFCF93DF93EC01888D8823B9F073
:1003E000AA89BB89E889F9898C9185FD03C0808140
:1003F00086FD0DC00FB607FCF7CF8C9185FFF2CFBD
:10040000808185FFEDCFCE010E947B01E9CFDF9196
:10041000CF910895FC0101900020E9F73197AF01D9
:10042000481B590BBC0185E491E00C94FD008F92B0
:100430009F92AF92BF920F931F93CF93DF93CDB74D
:10044000DEB7A1970FB6F894DEBF0FBECDBF19A2DD
:10045000423008F44AE08E010F5D1F4F842E912C2C
:10046000B12CA12CA50194010E940205E62FB9012F
:10047000CA01EA30F4F4E05DD801EE938D01232B3C
:10048000242B252B79F790E080E0109719F0CD010F
:100490000E940A02A1960FB6F894DEBF0FBECDBF30
:1004A000DF91CF911F910F91BF90AF909F908F9050
:1004B0000895E95CE1CFCF92DF92EF92FF92CF9364
:1004C000DF936B017C016DE285E491E00E949D0168
:1004D000EC0166277727CB016C197D098E099F09EE
:1004E0004AE00E9417028C0F9D1FDF91CF91FF9071
:1004F000EF90DF90CF9008951F920F920FB60F925A
:1005000011242F933F938F939F93AF93BF93809129
:100510003D0190913E01A0913F01B0914001309189
:100520003C0123E0230F2D3758F50196A11DB11D85
:1005300020933C0180933D0190933E01A0933F01A5
:10054000B09340018091410190914201A0914301FB
:10055000B09144010196A11DB11D8093410190937A
:100560004201A0934301B0934401BF91AF919F9189
:100570008F913F912F910F900FBE0F901F90189564
:1005800026E8230F0296A11DB11DD2CF1F920F9214
:100590000FB60F9211242F933F934F935F936F9356
:1005A0007F938F939F93AF93BF93EF93FF9385E4D4
:1005B00091E00E947B01FF91EF91BF91AF919F91DC
:1005C0008F917F916F915F914F913F912F910F90FC
:1005D0000FBE0F901F9018951F920F920FB60F929B
:1005E00011242F938F939F93EF93FF93E0915501E5
:1005F000F09156018081E0915B01F0915C0182FDF8
:100600001BC0908180915E018F5F8F7320915F018D
:10061000821741F0E0915E01F0E0EB5BFE4F958FB9
:1006200080935E01FF91EF919F918F912F910F9099
:100630000FBE0F901F9018958081F4CFCF92DF925C
:10064000EF92FF920F931F93E82FF92F05C00150EF
:1006500011092109310961F1908196239417B9F3A9
:1006600005C0015011092109310911F1908196232A
:100670009413F7CFC12CD12CE12CF12C0AC08FEFB1
:10068000C81AD80AE80AF80A0C151D052E053F05F8
:1006900079F080818623841791F36C2D7D2D8E2D2A
:1006A0009F2D1F910F91FF90EF90DF90CF900895B5
:1006B00060E070E080E090E01F910F91FF90EF907C
:1006C000DF90CF900895789484B5826084BD84B51E
:1006D000816084BD85B5826085BD85B5816085BD3D
:1006E00080916E00816080936E00109281008091F5
:1006F000810082608093810080918100816080937D
:100700008100809180008160809380008091B100A1
:1007100084608093B1008091B00081608093B000CC
:1007200080917A00846080937A0080917A00826060
:1007300080937A0080917A00816080937A00809122
:100740007A00806880937A001092C100E091550190
:10075000F091560182E08083E0915101F0915201C5
:100760001082E0915301F09154018FEC808310923C
:100770005D01E0915901F0915A0186E08083E0919A
:100780005701F0915801808180618083E091570189
:10079000F0915801808188608083E0915701F09149
:1007A0005801808180688083E0915701F091580161
:1007B00080818F7D8083E0EAF0E02491ECE8F0E036
:1007C00084918823C1F090E0880F991FFC01E859BB
:1007D000FF4FA591B491FC01E458FF4FC591D4910E
:1007E0003FB7F8949C91822F809598239C93988191
:1007F000892388833FBFEDE9F0E02491E9E8F0E048
:100800008491882399F090E0880F991FFC01E859A2
:10081000FF4FA591B491FC01E458FF4F859194914D
:100820008FB7F894EC91E22BEC938FBFC3E2D0E04A
:100830002AE3422E512C612C712C30E0232E30E023
:10084000332E60E086E00E948C00CE010197F1F724
:1008500061E083E00E948C00CE010197F1F760E037
:1008600083E00E948C00E0EAF0E06491ECE8F0E0C4
:100870008491E82FF0E0EE0FFF1FEE58FF4F8591B7
:10088000949100E412E42FE030E0462F0E941E0312
:10089000611571058105910529F06F5F7F4F8F4FBD
:1008A0009F4F9F70609338017093390180933A0194
:1008B00090933B014AE00E94170282E191E00E947E
:1008C0000A02609138017091390180913A0190914A
:1008D0003B01A30192010E9424052093340130932F
:1008E0003501409336015093370185E191E00E9434
:1008F0000A02609134017091350180913601909126
:10090000370197FF47C00E945B0282E191E00E949D
:100910000A020E94D8004B015C0184E6C82ED12C4B
:10092000E12CF12C0E94D800681979098A099B09E9
:10093000683E734081059105A8F3F1E0CF1AD10814
:10094000E108F10828EE820E23E0921EA11CB11CE2
:10095000C114D104E104F10429F78091340190918C
:100960003501A0913601B09137018F309105A10575
:10097000B105A4F461E086E00E948C0021143104EA
:1009800009F45FCF0E946701882309F45ACF0E94BF
:10099000000057CF4AE00E941702B7CF4497A10545
:1009A000B10564F361E084E0E7CFE5E4F1E01382B0
:1009B000128288EE93E0A0E0B0E084839583A68362
:1009C000B78384E091E09183808385EC90E0958704
:1009D000848784EC90E09787868780EC90E0918B09
:1009E000808B81EC90E0938B828B82EC90E0958BF6
:1009F000848B86EC90E0978B868B118E128E138EF3
:100A0000148E0895A1E21A2EAA1BBB1BFD010DC076
:100A1000AA1FBB1FEE1FFF1FA217B307E407F507AE
:100A200020F0A21BB30BE40BF50B661F771F881F8A
:100A3000991F1A9469F760957095809590959B0120
:100A4000AC01BD01CF010895052E97FB1EF4009463
:100A50000E943B0557FD07D00E94020507FC03D00A
:100A60004EF40C943B0550954095309521953F4FA1
:100A70004F4F5F4F089590958095709561957F4F8A
:100A80008F4F9F4F0895EE0FFF1F0590F491E02DBB
:060A90000994F894FFCF69
:100A9600000000009D01FD002A01EA015B01390109
:100AA6004D010D0A0044697374616E6369612065C6
:100AB6006D2063656E74696D6574726F73202D2D7C
:040AC6002D202000BF
:00000001FF
