:100000000C945D000C9485000C9485000C94850084
:100010000C9485000C9485000C9485000C9485004C
:100020000C9485000C9485000C9485000C9485003C
:100030000C9485000C9485000C9485000C9485002C
:100040000C944A030C9485000C94BA030C9494030A
:100050000C9485000C9485000C9485000C9485000C
:100060000C9485000C94850000000008000201003B
:100070000003040700000000000000000000000072
:10008000250028002B0000000000240027002A0083
:10009000040404040404040402020202020203032E
:1000A0000303030301020408102040800102040836
:1000B0001020010204081020EC0311241FBECFEF12
:1000C000D8E0DEBFCDBF11E0A0E0B1E0ECE2FAE0A5
:1000D00002C005900D92A433B107D9F721E0A4E343
:1000E000B1E001C01D92A23FB207E1F710E0CDE5FB
:1000F000D0E004C02197FE010E940E05CC35D10747
:10010000C9F70E9436040C9414050C94000090E08A
:10011000FC01EC55FF4F249180579F4FFC018491C7
:10012000882399F090E0880F991FFC01EA57FF4F50
:10013000A591B491FC01E458FF4F859194918FB73C
:10014000F894EC91E22BEC938FBF089590E0FC01C2
:10015000E859FF4F2491FC01EC55FF4F3491FC010D
:10016000E057FF4FE491EE23C9F0222339F023300A
:1001700001F1A8F4213019F1223029F1F0E0EE0F5D
:10018000FF1FE458FF4FA591B4918FB7F894EC91FD
:10019000611126C030953E233C938FBF08952730D0
:1001A000A9F02830C9F0243049F7809180008F7D74
:1001B00003C0809180008F7780938000DFCF84B56B
:1001C0008F7784BDDBCF84B58F7DFBCF8091B0006E
:1001D0008F778093B000D2CF8091B0008F7DF9CF20
:1001E0003E2BDACFAF92BF92CF92DF92EF92FF9287
:1001F0000F931F93CF93DF936C017B018B01040F4F
:10020000151FEB015E01AE18BF08C017D10759F0EA
:100210006991D601ED91FC910190F081E02DC6012C
:100220000995892B79F7C501DF91CF911F910F9126
:10023000FF90EF90DF90CF90BF90AF900895FC01BA
:10024000538D448D252F30E0842F90E0821B930B3B
:10025000541710F0CF96089501970895FC01918DE1
:10026000828D981761F0A28DAE0FBF2FB11D5D96E4
:100270008C91928D9F5F9F73928F90E008958FEF86
:100280009FEF0895FC01918D828D981731F0828D3A
:10029000E80FF11D858D90E008958FEF9FEF089591
:1002A000FC01918D228D892F90E0805C9F4F821BF5
:1002B00091098F73992708958DE391E00E94500171
:1002C00021E0892B09F420E0822F089580E090E05E
:1002D000892B29F00E945C0181110C940000089583
:1002E000FC01A48DA80FB92FB11DA35ABF4F2C91AB
:1002F000848D90E001968F739927848FA689B789A2
:100300002C93A089B1898C91837080648C93938D98
:10031000848D981306C00288F389E02D80818F7D3B
:1003200080830895EF92FF920F931F93CF93DF93F3
:10033000EC0181E0888F9B8D8C8D98131AC0E88921
:10034000F989808185FF15C09FB7F894EE89FF89F0
:100350006083E889F98980818370806480839FBF8E
:1003600081E090E0DF91CF911F910F91FF90EF908E
:100370000895F62E0B8D10E00F5F1F4F0F7311279E
:10038000E02E8C8D8E110CC00FB607FCFACFE889D9
:10039000F989808185FFF5CFCE010E947001F1CFF0
:1003A000EB8DEC0FFD2FF11DE35AFF4FF0829FB74D
:1003B000F8940B8FEA89FB8980818062CFCFCF933D
:1003C000DF93EC01888D8823B9F0AA89BB89E8897D
:1003D000F9898C9185FD03C0808186FD0DC00FB623
:1003E00007FCF7CF8C9185FFF2CF808185FFEDCFA1
:1003F000CE010E947001E9CFDF91CF910895089559
:1004000090E080E00895CF93DF93EC0160E08E816F
:100410000E94A60061E08E810E94A60060E08E81AD
:100420000E94A6008BE891E00197F1F7DF91CF9150
:100430000895CF92DF92EF92FF920F931F93CF9385
:10044000DF936C017C0187E0E80EF11CD0E0C0E096
:10045000062F10E0B8010C2E02C0759567950A941E
:10046000E2F76170F70181917F010E94A600219659
:10047000C430D10579F7C601DF91CF911F910F915B
:10048000FF90EF90DF90CF900C940302CF92DF9219
:10049000EF92FF920F931F93CF93DF93EC01F62E11
:1004A000642F8C810E94A6008D818F3F19F060E03F
:1004B0000E94A6000F2D10E08F8584FF25C06E01DD
:1004C00087E0C80ED11CF12CE12CB8010E2C02C023
:1004D000759567950A94E2F76170F60181916F0155
:1004E0000E94A600FFEFEF1AFF0A88E0E816F10469
:1004F00061F7CE01DF91CF911F910F91FF90EF90A7
:10050000DF90CF900C940302B80184E07595679555
:100510008A95E1F7CE010E9419026F2DCE01DF917D
:10052000CF911F910F91FF90EF90DF90CF900C949F
:10053000190240E0682F8AED91E00C94460281E0B8
:100540000E9499028BE39FE10197F1F70895CF9301
:10055000DF93823029F49091E90198609093E9014A
:100560008093ED011092EE0180E48093EF0180E131
:100570008093F00180E58093F1018091DE010E947B
:1005800087008091DF018F3F11F00E9487008091EA
:10059000E0010E948700CAEDD1E09E012A5D314052
:1005A0008091E90184FD0AC084E090E0219628173B
:1005B00039073CF48E810E948700EFCF88E090E0FD
:1005C000F5CF8BE39DE00197F1F760E08091DE01CC
:1005D0000E94A60060E08091E0010E94A600809148
:1005E000DF018F3F19F060E00E94A6008091E901D1
:1005F00084FD34C063E08AED91E00E941902CBE4EF
:10060000D6E4CE010197F1F763E08AED91E00E9414
:1006100019022197F1F763E08AED91E00E94190237
:1006200083E592E00197F1F762E08AED91E00E94A4
:1006300019028091E90180620E94990284E080930E
:10064000EA018CE00E9499020E949F0282E080935E
:10065000EB0186E0DF91CF910C94990280620E94B9
:1006600099028BE496E40197F1F78091E9018062A9
:100670000E94990283E592E00197F1F78091E901E8
:1006800080620E949902D5CF41E00E94460281E03B
:1006900090E008951F920F920FB60F9211242F939E
:1006A0003F938F939F93AF93BF9380913901909124
:1006B0003A01A0913B01B0913C013091380123E017
:1006C000230F2D3758F50196A11DB11D2093380138
:1006D0008093390190933A01A0933B01B0933C0180
:1006E0008091340190913501A0913601B09137018C
:1006F0000196A11DB11D8093340190933501A09303
:100700003601B0933701BF91AF919F918F913F9187
:100710002F910F900FBE0F901F90189526E8230F72
:100720000296A11DB11DD2CF1F920F920FB60F924C
:1007300011242F933F934F935F936F937F938F93E6
:100740009F93AF93BF93EF93FF938DE391E00E944C
:100750007001FF91EF91BF91AF919F918F917F9128
:100760006F915F914F913F912F910F900FBE0F901E
:100770001F9018951F920F920FB60F9211242F936E
:100780008F939F93EF93FF93E0914D01F0914E0172
:100790008081E0915301F091540182FD1BC0908152
:1007A000809156018F5F8F7320915701821741F01E
:1007B000E0915601F0E0E35CFE4F958F8093560187
:1007C000FF91EF919F918F912F910F900FBE0F90FE
:1007D0001F9018958081F4CFEDE3F1E0138212822F
:1007E00088EE93E0A0E0B0E084839583A683B7838E
:1007F00084E091E09183808385EC90E09587848705
:1008000084EC90E09787868780EC90E0918B808BDA
:1008100081EC90E0938B828B82EC90E0958B848BC3
:1008200086EC90E0978B868B118E128E138E148E31
:10083000EAEDF1E01382128286E191E091838083F8
:100840008BE084838FEF85838AE0868385E08783CE
:1008500084E0808783E0818782E082871386148624
:1008600015861686178681E00C94A702789484B5C5
:10087000826084BD84B5816084BD85B5826085BD9C
:1008800085B5816085BD80916E00816080936E002A
:10089000109281008091810082608093810080911C
:1008A00081008160809381008091800081608093CD
:1008B00080008091B10084608093B1008091B0008D
:1008C00081608093B00080917A00846080937A0088
:1008D00080917A00826080937A0080917A008160B2
:1008E00080937A0080917A00806880937A001092D9
:1008F000C100E0914D01F0914E0182E08083E091D2
:100900004901F0914A011082E0914B01F0914C01B4
:100910008FEC808310925501E0915101F0915201CA
:1009200086E08083E0914F01F091500180818061E9
:100930008083E0914F01F091500180818860808335
:10094000E0914F01F0915001808180688083E091B7
:100950004F01F091500180818F7D808382E00E9461
:10096000A7020E949F02E1E08091ED018111E0E089
:10097000E195F0E0E652FE4F848980680E9499027A
:100980004CE050E06EE171E08AED91E00E94F200EF
:10099000E091ED01E23048F5E150F0E0E652FE4F23
:1009A000848980680E94990247E050E06BE271E020
:1009B0008AED91E00E94F200C0E0D0E08DE391E08A
:1009C0000E945001892B41F08DE391E00E942E019D
:1009D000853269F40E949F02209781F30E945C0196
:1009E000882361F30E940000E9CFE1E0D6CF8E3387
:1009F00079F4E091ED01E23048F4E150F0E0E652A4
:100A0000FE4F848980680E949902E6CFE1E0F6CF2C
:100A1000682F8AED91E00E944403DECFEE0FFF1FA6
:0C0A20000590F491E02D0994F894FFCFAC
:100A2C00000000009201F2001F01DF0150012E01B5
:100A3C004201000000004403F2000002FF014C756B
:100A4C00616E204775737461766F0046696C6970CE
:040A5C006F760000B1
:00000001FF
