:100000000C945D000C9485000C9485000C94850084
:100010000C9485000C9485000C9485000C9485004C
:100020000C9485000C9485000C9485000C9485003C
:100030000C9485000C9485000C9485000C9485002C
:100040000C9462020C9485000C94D2020C94AC02C5
:100050000C9485000C9485000C9485000C9485000C
:100060000C9485000C9485000000000024002700FB
:100070002A0000000000250028002B0004040404CE
:100080000404040402020202020203030303030342
:10009000010204081020408001020408102001021F
:1000A00004081020000000080002010000030407FB
:1000B0000000000000000000F20411241FBECFEF7A
:1000C000D8E0DEBFCDBF11E0A0E0B1E0EEE9FEE098
:1000D00002C005900D92A435B107D9F722E0A4E53E
:1000E000B1E001C01D92A030B207E1F710E0CDE50C
:1000F000D0E004C02197FE010E944707CC35D1070C
:10010000C9F70E9404030C944D070C94000090E082
:10011000FC01EC55FF4F2491FC01E057FF4F349157
:10012000FC01E458FF4FE491EE23C9F0222339F09B
:10013000233001F1A8F4213019F1223029F1F0E047
:10014000EE0FFF1FEE58FF4FA591B4918FB7F894B3
:10015000EC91611126C030953E233C938FBF0895EA
:100160002730A9F02830C9F0243049F78091800069
:100170008F7D03C0809180008F7780938000DFCFD8
:1001800084B58F7784BDDBCF84B58F7DFBCF809125
:10019000B0008F778093B000D2CF8091B0008F7D78
:1001A000F9CF3E2BDACFCF93DF9390E0FC01E057FD
:1001B000FF4F249184589F4FFC0184918823D1F0F4
:1001C00090E0880F991FFC01E859FF4FA591B49169
:1001D000FC01EE58FF4FC591D49161110EC09FB73D
:1001E000F8948C91E22FE0958E238C932881E22362
:1001F000E8839FBFDF91CF9108958FB7F894EC917A
:10020000E22BEC938FBFF6CFAF92BF92CF92DF92EB
:10021000EF92FF920F931F93CF93DF936C017B01BB
:100220008B01040F151FEB015E01AE18BF08C0174C
:10023000D10759F06991D601ED91FC910190F081BF
:10024000E02DC6010995892B79F7C501DF91CF9182
:100250001F910F91FF90EF90DF90CF90BF90AF90E4
:100260000895FC01538D448D252F30E0842F90E0BC
:10027000821B930B541710F0CF96089501970895A1
:10028000FC01918D828D981761F0A28DAE0FBF2F6A
:10029000B11D5D968C91928D9F5F9F73928F90E0C0
:1002A00008958FEF9FEF0895FC01918D828D98172F
:1002B00031F0828DE80FF11D858D90E008958FEF6C
:1002C0009FEF0895FC01918D228D892F90E0805C35
:1002D0009F4F821B91098F739927089583E691E0C0
:1002E0000E94620121E0892B09F420E0822F089509
:1002F00080E090E0892B29F00E946E0181110C941E
:1003000000000895FC01A48DA80FB92FB11DA35AB8
:10031000BF4F2C91848D90E001968F739927848F25
:10032000A689B7892C93A089B1898C918370806448
:100330008C93938D848D981306C00288F389E02DE9
:1003400080818F7D80830895EF92FF920F931F939A
:10035000CF93DF93EC0181E0888F9B8D8C8D981378
:100360001AC0E889F989808185FF15C09FB7F89484
:10037000EE89FF896083E889F989808183708064D0
:1003800080839FBF81E090E0DF91CF911F910F911B
:10039000FF90EF900895F62E0B8D10E00F5F1F4F2A
:1003A0000F731127E02E8C8D8E110CC00FB607FC39
:1003B000FACFE889F989808185FFF5CFCE010E94C7
:1003C0008201F1CFEB8DEC0FFD2FF11DE35AFF4FB2
:1003D000F0829FB7F8940B8FEA89FB898081806255
:1003E000CFCFCF93DF93EC01888D8823B9F0AA8912
:1003F000BB89E889F9898C9185FD03C0808186FDE0
:100400000DC00FB607FCF7CF8C9185FFF2CF80812E
:1004100085FFEDCFCE010E948201E9CFDF91CF9120
:100420000895FC0101900020E9F73197AF01481BC6
:10043000590BBC0183E691E00C9404018F929F92CA
:10044000AF92BF920F931F93CF93DF93CDB7DEB7D9
:10045000A1970FB6F894DEBF0FBECDBF19A24230F0
:1004600008F44AE08E010F5D1F4F842E912CB12CB1
:10047000A12CA50194010E943E05E62FB901CA01F5
:10048000EA30F4F4E05DD801EE938D01232B242BA8
:10049000252B79F790E080E0109719F0CD010E94AC
:1004A0001102A1960FB6F894DEBF0FBECDBFDF914B
:1004B000CF911F910F91BF90AF909F908F90089513
:1004C000E95CE1CF1F920F920FB60F9211242F9388
:1004D0003F938F939F93AF93BF9380915F019091D0
:1004E0006001A0916101B091620130915E0123E051
:1004F000230F2D3758F50196A11DB11D20935E01E4
:1005000080935F0190936001A0936101B0936201B9
:1005100080915A0190915B01A0915C01B0915D01C5
:100520000196A11DB11D80935A0190935B01A09388
:100530005C01B0935D01BF91AF919F918F913F910D
:100540002F910F900FBE0F901F90189526E8230F44
:100550000296A11DB11DD2CF1F920F920FB60F921E
:1005600011242F933F934F935F936F937F938F93B8
:100570009F93AF93BF93EF93FF9383E691E00E9425
:100580008201FF91EF91BF91AF919F918F917F91E8
:100590006F915F914F913F912F910F900FBE0F90F0
:1005A0001F9018951F920F920FB60F9211242F9340
:1005B0008F939F93EF93FF93E0917301F0917401F8
:1005C0008081E0917901F0917A0182FD1BC09081D8
:1005D00080917C018F5F8F7320917D01821741F0A4
:1005E000E0917C01F0E0ED59FE4F958F80937C0106
:1005F000FF91EF919F918F912F910F900FBE0F90D0
:100600001F9018958081F4CF789484B5826084BD62
:1006100084B5816084BD85B5826085BD85B5816006
:1006200085BD80916E00816080936E001092810084
:10063000809181008260809381008091810081603F
:100640008093810080918000816080938000809100
:10065000B10084608093B1008091B000816080938C
:10066000B00080917A00846080937A0080917A0053
:10067000826080937A0080917A00816080937A0012
:1006800080917A00806880937A001092C100E09196
:100690007301F091740182E08083E0916F01F09129
:1006A00070011082E0917101F09172018FEC8083F2
:1006B00010927B01E0917701F091780186E08083D0
:1006C000E0917501F0917601808180618083E091F5
:1006D0007501F0917601808188608083E0917501D9
:1006E000F0917601808180688083E0917501F091BE
:1006F000760180818F7D808361E082E00E94D3005B
:1007000060E085E00E94D30085E4382E88248A9436
:1007100093E0992EA12CB12C06EA10E0C0E0D0E0C5
:1007200030927C0080917A00806480937A0080917E
:100730007A0086FDFCCF80917800A0917900BA2FD5
:10074000A82FB0935901A09358012FEF30E00E94D9
:100750004007A50194010E941F05CA01B9010E942A
:10076000190660935401709355018093560190933C
:10077000570182E191E00E941102C0905801D0908F
:1007800059010D2C000CEE08FF084AE0C701B60124
:10079000F7FE0DC06DE283E691E00E94A40166279A
:1007A0007727CB016C197D098E099F094AE00E94C9
:1007B0001E0281E391E00E941102C0905401D0908A
:1007C0005501E0905601F0905701A7019601C7012D
:1007D000B6010E943B07882359F184E491E00E940E
:1007E000110280E591E00E94110260915401709124
:1007F000550180915601909157010E94E1052B010E
:100800007B0161E082E00E94D3004114510409F0B1
:10081000A1C060E082E00E948700209709F480CFA9
:100820000E946E01882309F47BCF0E94000078CFDC
:1008300026013701E89477F82FEF3FEF4FE75FE7A6
:10084000C301B2010E943B0781110DC02FEF3FEFA2
:100850004FE75FE7C301B2010E94DC0518161CF4E4
:1008600088E491E0BCCF2FEF3FEF4FE75FE4C70193
:10087000B6010E94C90618161CF48CE491E0AFCFB3
:100880002FEF3FEF4FE75FECC701B6010E94DC0599
:1008900087FDF3CF20E030E0A901C701B6010E9437
:1008A000DC0587FF09C06DE283E691E00E94A401A8
:1008B000F7FAF094F7F8F0942AE037ED43EA5BE3B7
:1008C000C701B6010E9470052B013C010E94E8059A
:1008D0006B017C010E9417069B01AC01C301B201B0
:1008E0000E946F052B013C014AE0C701B6010E943E
:1008F0001E026EE283E691E00E94A40120E030E057
:1009000040E251E4C301B2010E94CE062B013C013A
:100910000E94E8056B01F12CE12C4AE0C701B60109
:100920000E941E02C701B6010E9417069B01AC017E
:10093000C301B2010E946F0520E030E040E251E4C3
:100940000E94CE060E94E80590E080E04AE00E9406
:100950001E0247CF8FEF4816510411F461E05ACFC1
:10096000F8018491833021F148F48130B9F082306C
:10097000D1F0F0E8EF16F1048CF74BCF873011F18E
:10098000883041F18430A9F78091800080628093A3
:10099000800050928B0040928A003FCF84B58068DF
:1009A00084BD47BC3ACF84B5806284BD48BC35CF96
:1009B00080918000806880938000509289004092EE
:1009C00088002BCF8091B00080688093B000409267
:1009D000B30023CF8091B00080628093B00040923A
:1009E000B4001BCFE3E6F1E01382128288EE93E0BD
:1009F000A0E0B0E084839583A683B78384E091E090
:100A00009183808385EC90E09587848784EC90E0E7
:100A10009787868780EC90E0918B808B81EC90E0CB
:100A2000938B828B82EC90E0958B848B86EC90E0AC
:100A3000978B868B118E128E138E148E0895052E31
:100A400097FB1EF400940E94360557FD07D00E94C4
:100A50003E0507FC03D04EF40C94360550954095A6
:100A6000309521953F4F4F4F5F4F0895909580955A
:100A7000709561957F4F8F4F9F4F0895A1E21A2E79
:100A8000AA1BBB1BFD010DC0AA1FBB1FEE1FFF1F32
:100A9000A217B307E407F50720F0A21BB30BE40B82
:100AA000F50B661F771F881F991F1A9469F76095C9
:100AB0007095809590959B01AC01BD01CF01089583
:100AC000A29FB001B39FC001A39F700D811D11248F
:100AD000911DB29F700D811D1124911D08955058D4
:100AE000BB27AA270E9487050C948F060E948106C7
:100AF00038F00E94880620F039F49F3F19F426F45C
:100B00000C947E060EF4E095E7FB0C947806E92F32
:100B10000E94A00658F3BA17620773078407950767
:100B200020F079F4A6F50C94C2060EF4E0950B2E95
:100B3000BA2FA02D0B01B90190010C01CA01A0012F
:100B40001124FF27591B99F0593F50F4503E68F18A
:100B50001A16F040A22F232F342F4427585FF3CFCB
:100B6000469537952795A795F0405395C9F77EF49C
:100B70001F16BA0B620B730B840BBAF09150A1F0E5
:100B8000FF0FBB1F661F771F881FC2F70EC0BA0F6B
:100B9000621F731F841F48F4879577956795B795F3
:100BA000F7959E3F08F0B0CF9395880F08F09927EE
:100BB000EE0F9795879508950E94540608F481E0FA
:100BC00008950E94E8056894B1110C94C306089535
:100BD0000E94A80688F09F5798F0B92F9927B7511F
:100BE000B0F0E1F0660F771F881F991F1AF0BA95D1
:100BF000C9F714C0B13091F00E94C206B1E0089567
:100C00000C94C206672F782F8827B85F39F0B93F58
:100C1000CCF3869577956795B395D9F73EF4909583
:100C20008095709561957F4F8F4F9F4F0895E89401
:100C300009C097FB3EF490958095709561957F4F24
:100C40008F4F9F4F9923A9F0F92F96E9BB279395D2
:100C5000F695879577956795B795F111F8CFFAF4E2
:100C6000BB0F11F460FF1BC06F5F7F4F8F4F9F4F13
:100C700016C0882311F096E911C0772321F09EE871
:100C8000872F762F05C0662371F096E8862F70E0D7
:100C900060E02AF09A95660F771F881FDAF7880FB1
:100CA0009695879597F90895990F0008550FAA0B07
:100CB000E0E8FEEF16161706E807F907C0F012166F
:100CC0001306E407F50798F0621B730B840B950B72
:100CD00039F40A2661F0232B242B252B21F40895C7
:100CE0000A2609F4A140A6958FEF811D811D089564
:100CF00097F99F6780E870E060E008959FEF80ECCF
:100D0000089500240A941616170618060906089571
:100D100000240A9412161306140605060895092ED7
:100D20000394000C11F4882352F0BB0F40F4BF2B46
:100D300011F460FF04C06F5F7F4F8F4F9F4F089586
:100D400057FD9058440F551F59F05F3F71F047957C
:100D5000880F97FB991F61F09F3F79F08795089561
:100D6000121613061406551FF2CF4695F1DF08C080
:100D7000161617061806991FF1CF8695710561059D
:100D800008940895E894BB2766277727CB0197F945
:100D900008950E94540608F48FEF08950E94E1061A
:100DA0000C948F060E94810638F00E94880620F07D
:100DB000952311F00C9478060C947E0611240C9463
:100DC000C3060E94A00670F3959FC1F3950F50E0F3
:100DD000551F629FF001729FBB27F00DB11D639FED
:100DE000AA27F00DB11DAA1F649F6627B00DA11D93
:100DF000661F829F2227B00DA11D621F739FB00D39
:100E0000A11D621F839FA00D611D221F749F3327A8
:100E1000A00D611D231F849F600D211D822F762F41
:100E20006A2F11249F5750409AF0F1F088234AF01E
:100E3000EE0FFF1FBB1F661F771F881F915050408A
:100E4000A9F79E3F510580F00C9478060C94C306D8
:100E50005F3FE4F3983ED4F3869577956795B79511
:100E6000F795E7959F5FC1F7FE2B880F911D96952B
:100E7000879597F908950E945406880B990B089559
:100E80000E946005B7FF0895821B930B0895EE0F33
:0E0E9000FF1F0590F491E02D0994F894FFCF18
:100E9E0000000000A40104013101F10162014001D2
:100EAE00540156616C6F72206C69646F20646F2000
:100EBE00706F74656E63696F6D6574726F203A2022
:100ECE0000203D204C756D696E6F736964616465B9
:100EDE00203A20006E616E00696E66006F766600C5
:040EEE000D0A0000E9
:00000001FF
